:10000000006E002059320000F5EA01002D32000098
:100010002D3200002D3200002D3200002D32000064
:10002000000000000000000000000000652B000040
:100030002D320000000000000D2B00002D320000CA
:10004000E52B0000E52B0000E52B0000E52B000070
:10005000E52B0000E52B0000E52B0000E52B000060
:10006000E52B0000E52B0000E52B0000E52B000050
:10007000E52B0000E52B0000E52B0000E52B000040
:10008000E52B0000E52B0000E52B0000E52B000030
:10009000E52B0000E52B0000E52B0000E52B000020
:1000A000E52B0000E52B0000E52B0000E52B000010
:1000B000E52B0000E52B0000E52B0000E52B000000
:1000C000E52B0000E52B0000E52B0000E52B0000F0
:1000D000E52B0000E52B0000E52B0000E52B0000E0
:1000E000E52B0000E52B0000E52B0000E52B0000D0
:1000F000E52B0000E52B0000E52B0000E52B0000C0
:10010000E52B0000E52B0000E52B0000E52B0000AF
:10011000E52B0000E52B0000E52B0000E52B00009F
:10012000E52B0000E52B0000E52B0000E52B00008F
:10013000E52B0000E52B0000E52B0000E52B00007F
:10014000E52B0000E52B0000E52B0000E52B00006F
:04015000E52B00009B
:1001540053B94AB9002908BF00281CBF4FF0FF312A
:100164004FF0FF3000F00CB8ADF1080C6DE904CE8F
:1001740000F008F8DDF804E0DDE9022304B070477C
:10018400704700BF2DE9F04786468C460846089E16
:10019400154674461946002B40F0C1808542B2FAD8
:1001A40082F245D94AB1C2F1200300FA02FC95401B
:1001B40094402EFA03F343EA0C0C4FEA154EA8B20E
:1001C400230CBCFBFEF80EFB18CC08FB00F943EA39
:1001D4000C43994528D9EB1808F1FF3704D2994507
:1001E40002D9A8F102072B44A3EB0903A4B2B3FB81
:1001F400FEFC0EFB1C330CFB00F044EA0344A0425B
:1002040014D92C190CF1FF3304D2A04202D9ACF159
:1002140002032C44241A43EA07401EB1D4400023AD
:1002240034607360BDE8F0874746DDE76346F1E775
:1002340092BB431B01214FEA154EAFB2200CB3FB16
:10024400FEFC0EFB1C330CFB07F840EA0343984505
:1002540061D9EB180CF1FF3004D2984502D9ACF106
:1002640002002B44A3EB0803A4B2B3FBFEFC0EFB79
:100274001C330CFB07F744EA0344A7424DD92C195D
:100284000CF1FF3304D2A74202D9ACF102032C448F
:10029400E41B43EA0040C0E7C2F1200395409440C8
:1002A40020FA03F12EFA03F34FEA154E9040AFB251
:1002B4000343B1FBFEFC0EFB1C10190C0CFB07F8EE
:1002C40041EA0041884522D969180CF1FF3004D273
:1002D400884502D9ACF102002944A1EB08019BB284
:1002E400B1FBFEFC0EFB1C110CFB07F743EA0143B8
:1002F4009F420ED9EB180CF1FF3104D29F4202D970
:10030400ACF102012B44DB1B41EA004193E7604658
:10031400E3E76146F7E76046A4E76346B8E783424C
:1003240006D916B9002108467CE7C6E900E0F9E7DA
:10033400B3FA83F78FB9834201D3724508D8BEEB71
:10034400020460EB030301209C461EB9002169E707
:100354003846FAE7C6E9004CF8E7C7F1200CBB4081
:100364000EFA07F522FA0CF42EFA0CF1BA401C43EB
:1003740020FA0CF3B8404FEA144901431FFA84FEF3
:10038400B3FBF9F809FB18300B0C08FB0EFA43EA2F
:1003940000439A4540D9E31808F1FF3004D29A4546
:1003A40002D9A8F102002344A3EB0A0389B2B3FBE8
:1003B400F9F809FB183308FB0EFE41EA03418E45A8
:1003C4002CD9611808F1FF3304D28E4502D9A8F163
:1003D4000203214443EA0040A1EB0E01A0FB029872
:1003E4004145CE46434602D306D14D4504D2013899
:1003F400B9EB020E68EB0403002EA7D0B5EB0E0296
:1004040061EB030101FA0CFC22FA07F3F9404CEA10
:100414000303C6E9003199E74046C5E74346D9E7F7
:100424000022014B1A6070472C4900202DE9F0414D
:1004340000248AB000AFC7E90144C7F80B40524812
:1004440029F021FD034678B9504A7A6202223A62C1
:100454004FF482514E4807F1200201F029FD00209B
:100464002837BD46BDE8F0814A4D284629F00BFDEA
:1004740000284BD0D5F81080AE68D8F8003017218A
:1004840043F40003C8F8003028463368424A9847CA
:1004940030B16D4688B06A46404BC2E9053012E07F
:1004A4003F49404B4B604FF400038B60F369ABB1A1
:1004B400012228469847044698B16D4688B06A469A
:1004C400394BC2E90534032342F8103F00234FF4AB
:1004D400C2512F4801F0ECFCAD46C0E76FF0850433
:1004E400EBE7D8F800304FF0A07213F4000F14BFFC
:1004F4004FF000734FF0806317212846B669B04768
:1005040020B16D4688B06A46284BC6E709F0B2F8B8
:1005140008F0F4FC0AF068F8254904460AF0CCFC1B
:10052400002309211A46204621F07EFB09F0A2F897
:1005340008F0E4FC0AF058F8002305211A460546A1
:1005440021F072FB0FF07CFD0F481A4C83681A4EA1
:100554005B68984764212368B3FBF1F201FB123313
:100564003BB93146381D03F0E3F82846391D0AF03B
:10057400A3FC0FF065FD23680133236000214FF4D1
:10058400A4701CF085FEE5E708A30200F2B802009F
:10059400A0A50200A8A202001100010012B90200E5
:1005A400204900202504000036B9020058B9020091
:1005B4007DB902002C4900200DCF02002DE9F04F37
:1005C40091B0009302F004030293C2F3C203013317
:1005D400840705460E46DDF868800392059340F0D3
:1005E400BD81041D30B1072909D86FF01B0011B07B
:1005F400BDE8F08F01F00706341DC6F10806009B24
:100604004FF000094FF0040A591E4FF0FF334F46D4
:100614000193CB465346CDF810900DB1009A226059
:100624000598002800F3EB809948009A824203D38E
:1006340098488242C0F0E380039AA4EB050E920727
:100644004FEA9E0000F106810F2F00F2B480002DC6
:1006540000F0088107F140020DEB020C019A0CF83E
:10066400200C0CF8102C049801300490EAE07A284D
:1006740060D84B280ED847285CD829282FD825289D
:1006840055D057D820287DD02338D0F1000B4BEB20
:10069400000B77E0A0F14C0CBCF12E0F4AD8DFE838
:1006A4000CF07149494949494949494949494C4921
:1006B400494949494949495A494C4C5A5A5A714C31
:1006C4006E497149184C18494983804C49494C4931
:1006D400800000204FF0000B4FF0040A39E00122A3
:1006E400A0F12A0C5FFA8CFC02FA0CFC1CEA0E0F37
:1006F40048D11CF062502ED11CEA020B42D0013CBE
:100704005444CAF1000C04EA0C04002D61D0A3EB9C
:10071400050CA444B4453FF668AF002868D1042B07
:1007240047D158F8043B2360042304342AE0019A97
:10073400013A01924FF0000B24E011F8010C6C28EF
:1007440034D1002011F8023C83466C2BC4D14FF005
:10075400080A5346D3E708F1070828F007080734C6
:1007640024F00704F8E802AB35B106982044B042FF
:100774003FF63BAFC4E900AB4FF0000B08344FF039
:10078400080A534611F8010F002878D0BBF1000F76
:100794007FF46DAF2528F5D14FF0010B019B013398
:1007A40001934FF0040AECE7584693E70020834690
:1007B400A5E7082B02D06FF0150018E708F1070829
:1007C40028F00708F8E80223C4E9002308230834C2
:1007D400D8E768B9042B02D108F10408A4E7082B70
:1007E400E9D108F1070828F0070808F10808EDE73F
:1007F400059A013A059258F8042B00920DE7039AE2
:10080400900720D54FF0010CA4EB050E4FEA9E0093
:10081400BEF5007FCFD20F2FCDD8F5B107F140023E
:100824000DEB020E019AC0B20EF8200C0EF8102C3B
:10083400BCF1000F3FF417AF60F07F000EF8200CFE
:1008440009F101090137C5F108024FF6DA7E0434D3
:10085400069297E74FF0000CDAE7BCF1000F01D0E5
:100864000136EFE7029802360028EBD10098CDE973
:1008740006311EF07EF9DDE906310644E2E7631B2A
:10088400B3F5806F97D23DB9A6F10804E018AEE63F
:10089400F0A102005C180300029A9B0828602B70E8
:1008A4009DF81030C2B1EB7085F80290B9F1000FD9
:1008B40005D0002208A8C5F1010C97420ED14FF0D3
:1008C400000AC5F101030DF1200801930DF1300B6D
:1008D400574512D1601B8AE66B70E5E710F8013BBF
:1008E400190608D504EB0C0EB64503F07F033FF65A
:1008F4007CAE04F8013B0132DFE7B9F1000F03D00D
:1009040098F90020002A17DB029BD3B11AF80B20B8
:1009140004F8012B0022019B98182044B0423FF6B2
:1009240064AE98F80000009904F8010B2046039285
:100934001EF03BF9039A14440AF1010A08F1010874
:10094400C6E798F8002055F822300093029B0098DF
:1009540045F822301EF00DF9421CDCE76FF00D0063
:1009640045E600BF2DE9F04F95B000AFD7F878B059
:10097400BB61CBF3C00304467A623B61396251B96F
:1009840003784678807800EB830020443B6A9E42DB
:100994001AD8031B3B6294F802A0E37856467B61A5
:1009A400BAF1000F02D01BF0010F17D17B695BBBBA
:1009B4007B6A1BB12046BA69396A98473D6A284662
:1009C4005437BD46BDE8F08F451C28461EF0D1F8CB
:1009D4003B6A0130013328443B62D7E7636894F8EB
:1009E4000080FB617B6A4FEA8802FA6004EB8808A6
:1009F400002B40F00281C14600263D6A0AEB080341
:100A04004B454ED1D04413E01BF0020FD0D094F8E4
:100A140000804FEA8803FB60636804EB8808FB618D
:100A24007B6A002B78D13D6ABAF1000F4ED156464D
:100A34001BF0050F0CBF022301237B627B6908EBCB
:100A4400430A0BF002033B62D045B8D018F8021BEE
:100A540018F8013C54F82390AD4B994502D3AD4BA3
:100A6400994539D33B69002B43D0F8691DF055F8FB
:100A740000283ED0E9468AB06A46A74B5361FB6919
:100A8400C2E906314FF400731384A44B42F8103FBB
:100A940000234FF41251A24801F00AFA023DCD4658
:100AA400D2E719F8012B7B6254F822001EF061F89A
:100AB400FA6F7B6A01303AB1D7F8802096423EBF84
:100AC400FA6F22F816000136054499E71BF0040674
:100AD4001CBF7E6AD044ABE73B6923B1F8691DF0C3
:100AE4001CF80028C6D11BF0010F05D17B6AED1A52
:100AF400AAE73B6A002BA7D048461EF03AF8FB6FE2
:100B040043B1D7F880309E423FBFFA6F431C22F8AE
:100B140016300136054497E7BAF1000F72D01BF086
:100B2400040672D0D146002607F1400052464146E1
:100B34001EF03BF87B69D0445B00BB607B6908EB2B
:100B440043037B610BF002037B607B6998455ED1B4
:100B540023781BF0020FFB61637818BF002106EBBA
:100B6400030208BF4FEA59011BF0010FD2B240F053
:100B74009D801BF0040F14BF4846002094F802B077
:100B840094F803803B616270A070E1702046BA69FA
:100B9400F9687B6A9847051EFFF611AFFB6984F874
:100BA400038023703B6949466370BA697B6A84F8A1
:100BB40002B007F140009847B0F10008C0F2A380EA
:100BC4003B6ABA69A3EB0A01FB687869C91ABB6876
:100BD400C91A7B6A98470028C0F297804FF0000B2F
:100BE400A84408EB000507F1300AB34560D300219F
:100BF400BA6908467B6A9847E1E64FF0000907F1B5
:100C0400300093E75646D14694E7B14692E718F888
:100C1400021B3F4A18F8015C54F82530934202D372
:100C24003C4A93421CD33B6923B1F8691CF075FF1D
:100C340000288AD17B68F3B909F1280207F128005A
:100C4400024409F1010302F8101C07F1500209F1F2
:100C5400020952FA83F35FFA89F903F8105C74E726
:100C64003B692BB1F8691CF058FF00287FF46DAF85
:100C74001BF0010F09D006F1280207F12801731CAB
:100C8400561806F8205CDEB25FE71BF0040F3FF451
:100C94005CAF09F1280207F1280109F1010302EB15
:100CA400010909F8105C5FFA83F94EE7002065E753
:100CB4001BF80A3054F8239087F82F30FB6FFBB1F0
:100CC40033F81B800121BA697B6A07F12F0098472A
:100CD40000281ADB0544B8F1000F06D148461DF080
:100CE40048FF00F101081FFA88F841464846BA69EE
:100CF4007B6A9847002808DB05440BF1010B74E775
:100D0400D7F87C80DEE7454659E6054657E600BF3E
:100D1400F0A102005C1803008EB902000400000177
:100D2400A8A50200014B1860704700BF0000002016
:100D340030B5002587B0CDE903010446009503A929
:100D44000548059500F018F9DDE904309842B8BF6C
:100D5400255407B030BD00BF6DDB01002DE9F0471D
:100D6400058B04462807904611D4022905F007058F
:100D740040F0CD8020461DF076FA78B10138218B01
:100D8400042811D8DFE800F0C3106D85950001290F
:100D94000CBF45F0100545F02005258388F3118824
:100DA400BFF36F8FBDE8F08701F0070AAA4500F092
:100DB400A6800027B9463E46A368002B00F0BD80FC
:100DC40041F00801218388F31188BFF36F8FA16874
:100DD400002900F0BB800D68002900F0B78033467D
:100DE40052462046D1F80480C047002D76D02B68A7
:100DF40029461D46F0E701F007035A1F012A1BD8B4
:100E0400002221F00701062B276889B2C4E90022D9
:100E140009D13B4603E0628B013262831B68002BDD
:100E2400F9D141F00201204621831DF01CFA00286B
:100E34007BD041F0200177E0042B0AD121F0070197
:100E440089B2204621831DF00EFA10B141F0200131
:100E54002183218B01F0070AAA4550D00027B94607
:100E6400AAE7236921F0070141F00601062DD3F812
:100E7400009021832DD1B9F1000F40D041F0080139
:100E8400218388F31188BFF36F8F20463949C847FF
:100E940029E021F00701236941F0040189B2042DFE
:100EA400D3F804902183E6D000274FF0040A3E468D
:100EB40082E721F00701236941F0050189B2052D7C
:100EC400D3F808902183D6D000274FF0050A3E4678
:100ED40072E700274FF0060A3E466DE72B4687E788
:100EE400B9F1000FD1D14FF02003EFF3118883F350
:100EF4001288BFF36F8F238B23F008032383258B82
:100F0400EA062ED525F01003238305F0070566694C
:100F1400218B002EBFF66FAF00232768C4E900338E
:100F240021F0070141F001012183218B4FF00009D9
:100F340001F0070AAA457FF43FAF002F9BD041F090
:100F44000801218388F31188BFF36F8F002FC7D066
:100F54003D6839463346524620461DF0B0F92F46C7
:100F6400F4E7AB067FF51AAF25F02003238305F0E1
:100F74000705FFE6EFE201002DE9F04F81468B46BD
:100F840017461C46002595B0387808B9284657E31B
:100F94007B1C2528039306D05946C8470028C0F275
:100FA4004F830135FBE1182200210EA81DF008FE35
:100FB4007B78252B7DD0002398469E469C461E4672
:100FC400781C014610F8012B2B2A00F0A18000F2B6
:100FD4009880202A00F09F80232A00F09F802BB164
:100FE4009DF8403043F040038DF84030B8F1000FD5
:100FF40005D09DF8403043F020038DF84030BEF119
:10100400000F05D09DF8403043F010038DF84030B8
:10101400BCF1000F05D09DF8403043F008038DF873
:1010240040302EB19DF8403043F004038DF8403039
:101034009DF8403003F04400442803D16FF3861335
:101044008DF840309DF840302A2A43F080038DF813
:1010540040307FD19DF841204B1C42F001028DF8B5
:1010640041201A782E2A0CBF012100219DF841202D
:1010740061F341028DF8412078D15A782A2A6ED042
:1010840000224FF00A0C0133194611F8010BA0F1AC
:101094003006092E40F295809DF840101292C1F35B
:1010A400400040EAD2700A4660F341028DF84020C5
:1010B4005CE0BA1C03928DF843309DF84130DA07A6
:1010C40040F12E8154F8048BB8F1000F07DA9DF833
:1010D4004020C8F1000842F004028DF840205E0769
:1010E40040F1278154F804ABBAF1000F80F2268155
:1010F4009DF841306FF341038DF841304FF0FF3AD2
:101104001CE12D2A0DD0302A7FF469AF012358E762
:101114004FF0010C55E74FF0010E52E74FF0010874
:101124004FE701264DE703460EFB0262303A1846AC
:1011340010F8016BA6F1300CBCF1090FF3D99942F8
:101144008FD09DF840101192D20F62F341018DF8B7
:10115400401086E70B4600224FF00A0EE7E79DF8A1
:101164004120023342F004028DF841201A786C2A9F
:1011740047D02BD8682A31D06A2A4BD04C2A51D078
:101184001A4612F8013B782B03928DF843309DF8F0
:10119400412000F2BE806D2B51D8692B00F2B9803A
:1011A400572B67D8412B03D0453B022B00F2B1806B
:1011B40004229DF8423062F302038DF84230012389
:1011C40073E00CFB02020B46303A5DE7742A25D02B
:1011D4007A2AD5D106219DF841200CE05A78682A54
:1011E4009DF8412006D1012161F3C6028DF841200A
:1011F4000233C5E7022161F3C6028DF841200133B1
:10120400BEE75A786C2A9DF8412001D10421EBE70E
:101214000321F0E705219DF84120ECE707219DF823
:101224004120E8E7BDF8402022F4F04222F0020217
:1012340042F4804242F00202ADF84020DFE76E3B08
:10124400D9B201238B4040F282410B4237D113F0D3
:10125400240F51D1D8075CD503219DF8423061F3A6
:1012640002038DF8423002F07803A3F140014B42AF
:101274004B411AE00120A3F15801C9B200FA01F16F
:1012840011F4624F94D140F6010631421DD111F49C
:10129400043F3ED09DF8423060F3020302F078022E
:1012A400402A8DF8423034D000239DF84020C2F308
:1012B40040010B4363F341028DF84020FDE6022117
:1012C4009DF8423061F30203E8E702209DF84210E2
:1012D40002F0780260F30201402A8DF8421002BF46
:1012E4009DF8401041F001018DF84010632BDBD1D3
:1012F400131E18BF0123D8E703219DF8423012F0D2
:10130400780F61F302038DF8423014BF01230023E8
:10131400CBE79DF8403043F001038DF84030C3E73C
:101324009DF94020002AACBF4FF0FF38DDF844801F
:10133400D5E698077FF5E2AEDDF848A00023CDE9B5
:1013440011339DF842309DF8411003F00703012B3F
:10135400C1F3C30133D1CB1E042B04D8DFE803F05F
:10136400214646212100236801294FEAE372CDE991
:101374000E321CD19DF93830DA17CDE90E3204341F
:101384009DF8403013F0030650D03A46594648467B
:10139400039B1DF087F80028C0F252810544039F87
:1013A400F2E554F8043BDA17CDE90E32E8E70229F6
:1013B400E5D11AB243F3C033CDE90E23DFE7022BA4
:1013C40024D1CB1E042B04D8DFE803F01810101826
:1013D400180001294FF0000254F8043B14D00229EC
:1013E400CDE90E32CCD19BB20E93C9E7073424F079
:1013F4000704F4E80223CDE90E23C1E754F8043BC3
:101404000E9300230F93BBE7DBB2CDE7042B08D187
:10141400073424F00704D4E900230834CDE90E236B
:10142400AEE7032BACD154F8043BDDE79DF8430051
:101434007828B4D862281CD825283FF4ADAD5828A4
:10144400ADD1DDE90E010DF13603009310AA08AB0E
:101454001CF0E2FFBAF1000F074680F29980002FDA
:101464009DD00DF13603D81B002E00F0C080013052
:10147400BDE06338152892D801A252F820F000BFCD
:10148400591500006B150000A3130000A3130000FE
:10149400A3130000A31300006B150000A3130000A6
:1014A400A3130000A3130000A3130000F71500000A
:1014B4008F150000B5150000A3130000A31300004E
:1014C400DD140000A31300008F150000A313000017
:1014D400A31300008F150000BAF1000F0E9F35DB37
:1014E400514638461DF04CFB07EB000A002F3FF431
:1014F40056AF00269DF8423013F01002059200F01A
:10150400928002305B06119A48BF129B104448BF78
:10151400C018B8F1000F049240F39F809DF840205A
:10152400A8EB0008C2F380035007069300F19580EE
:10153400510640F188803EB159463046C8470028DC
:101544007EDB069B01351E4630227DE038461DF0C9
:1015540010FBC9E70E9B002601208DF8203008AF50
:101564000DF1210AC6E719075ABFC3F300135E0140
:101574002B26DDE90E23002BBFF663AF524263EB4B
:1015840043032D26CDE90E235BE7002659E7002609
:101594009DF840200DF13603DB1B6FF386129A454C
:1015A4008DF840207FF65BAFAAEB0303119356E757
:1015B4000E9890B30DF136030093002108AB10AAE6
:1015C4001CF02AFFBDF84230BAF1000F03F0EF031C
:1015D40043F4F04343F010030746ADF84230D6DA43
:1015E40000283FF4DCAE00260DF13603181A9A46A3
:1015F40080E70E9B07293FF6D2AEDFE801F00C042A
:10160400060C08080C0C1D70C9E61D80C7E6EA1715
:10161400C3E90052C3E61D60C1E62F4F064607F139
:10162400050A052066E71A0748BF01306AE7104635
:10163400079306925946C847DDE90623002804DAD1
:1016440015B0BDE8F08F202243461946002903F166
:10165400FF33ECDC454498466D1A2EB159463046AA
:10166400C8470028ECDB01359DF84230DA0601D486
:101674001B0705D559463020C8470028E0DB013553
:10168400059B33B159469DF84300C8470028D7DB72
:101694000135049E2E4405E059463020C8470028F1
:1016A400CEDB0135731B002BF6DC53463A46594614
:1016B40048461CF0F7FE0028C2DB0544A844A8EB0A
:1016C4000503002B7FF76BAE59462020C84700283E
:1016D400B6DB0135F3E700BF42BA0200044608B5A1
:1016E4004FF02002EFF3118382F31288BFF36F8F60
:1016F40003F088FD204601F0DDFD03481CF047FAA5
:1017040001F0F6F8FCE700BF48BA0200054B03EB12
:101714008000D0F8003223F0E04343F04053C0F897
:10172400003270470025845010B54FF02003EFF3CA
:10173400118483F31288BFF36F8F01220C4B0D4980
:10174400C3F8002502230020C1F8D036FFF7DEFFDE
:101754001046FFF7DBFFC1F80427C1F80429C1F8DC
:10176400002B84F31188BFF36F8F002010BD00BFDE
:101774000010005000400050052370B5144D154E64
:101784002C780134B4FBF3F303EB8303E41A1DF068
:10179400C7FC114A137823B156F82430C01A07281D
:1017A40014D94FF05023D3F8141141B10021C3F8D8
:1017B4001411D3F814312C700CB9012313702C7844
:1017C4001DF0AEFC46F82400012070BD0020FCE7AB
:1017D40091580020304900209058002048B1054B12
:1017E400054A1B68B3FBF2F35843044B43F001036F
:1017F40018477047EC00002040420F0070A602001A
:10180400062807D10122044BC3F80025BFF34F8FEC
:1018140020BFFDE7704700BF00400050F0B583B023
:1018240000AF381D03F0B0FE274B984249D103F0B6
:1018340081FC041E13DA387903F0ACFE6D4688B0DF
:101844006A46224BC2E90534032342F8103F0023C1
:101854004FF4C2511E4800F02BFBAD462DE040F67C
:1018640007031C4D7C71AE68FB8074687B6814B9F7
:101874006FF05704E2E708212846174AA047041EE0
:10188400DCDB3369002BF3D001220821284698477A
:10189400041ED3DB01233D79104AAB40C2F8043562
:1018A4007879FE791DF031FC0D4B45F00045B6000A
:1018B400C0F880509D51002CC0D120460C37BD4645
:1018C400F0BD6FF01204B9E70000AD0B75BA020069
:1018D40018A60200D8A202002D19000000700150C1
:1018E40080A1025038B5049CC4F30725284603F0B0
:1018F40093FA00210A4BA20B02F0FC02C0F88010FC
:1019040099500123E4B2074AA3402846C2F8083597
:1019140003F02EFC2046BDE8384003F03BBE00BF78
:1019240080A0025000700150F7B5144683681B690B
:101934000BB100229847C4F30726304603F074FA2B
:10194400054630461DF0E1FB0027104B220E9200A5
:10195400C0F880709F50304603F05EFAA20B0C4B27
:1019640002F0FC021344E2B242F000421A60094B56
:10197400C0F8802005F13202009330463B460194C2
:1019840052001DF0CBFB03B0F0BD00BF80A102509C
:1019940080A00250E918000003F074BC2DE9F04760
:1019A400044607464FF00109DFF8508014B9384661
:1019B400BDE8F08794FAA4F5B5FA85F509FA05F3BC
:1019C4002E0108EB05156FEA030A24EA03042B7BB6
:1019D400002BEBD058F806301B694BB946447368AA
:1019E40004222846196807EA0A0700F04DFADDE7E1
:1019F400284698470028D9D1F0E700BF28A602005E
:101A040030B5002289B00F490F4828F0C0FB0022EE
:101A140000230024CDE906230E230C4DCDE9033425
:101A24004FF440722846CDE90144094B094900941A
:101A34001AF0ACFF0849284628F087FA204609B076
:101A440030BD00BF611A0000980700201003002079
:101A5400391D0000C0590020A6BA020001481BF03D
:101A6400EFB800BFFC0200202DE9F04780461F4874
:101A74000F461CF09FFF0646002830D0002528465C
:101A8400BDE8F087237B73B12368DB680BB1204684
:101A9400984723681B69D3B96368042220461968F0
:101AA40000F0F2F9013610344C45EBD3B8F1000FD5
:101AB400E5D0002DE2D02846FFF770FF0546002F41
:101AC400F7D000214FF4A4701BF0E2FBF1E72046AD
:101AD40098470028E0D00AFA06F31D43E2E70546DA
:101AE4004FF0010A024CDFF80C90DDE75449002066
:101AF40028A6020038A60200014B53F820007047C4
:101B04008CA6020008B5034608462BB1044A1360AC
:101B140000F06CFC002008BD6FF01500FBE700BF6F
:101B24000400002010B5044C237813B903481BF0BB
:101B340087F80123237010BD92580020FC02002076
:101B440010B5044606481CF035FF3CB1054BD3E8FC
:101B5400EF1F0139C3E8E21F002AF8D110BD00BF0E
:101B64004C4900205049002000200146034BD3E893
:101B7400EF0FC3E8E21F002AF9D170474C49002057
:101B840070B5FFF7F1FF0546074C084EB44200D389
:101B940070BD63685B792BB123685B6813B1294618
:101BA400204698471034F1E728A6020038A6020020
:101BB40010B5044C044920461CF087FD034B1C60FF
:101BC40010BD00BF7002002078A602004449002026
:101BD40008B50023074A4FF400411370064A07482A
:101BE4001360074A1360FFF78DFFBDE80840FFF755
:101BF400DFBF00BF935800204C490020B5E9010025
:101C04005049002001460022002301481CF07EBDFB
:101C14007002002001481CF017BE00BF70020020B3
:101C2400024B014618681CF061BE00BF4449002005
:101C340001481CF097BE00BF7002002070B5264B0F
:101C44001878002847D0FFF7E5FF054670B1234B0D
:101C5400D3E8EF1F0139C3E8E21F002AF8D1204C72
:101C6400204EB4422DD32846FFF7DAFF1E4B1F4CFB
:101C74001B68002B19DD28F084FA4FF47A72A0FB5C
:101C8400020302FB0131C30B43EA4143D4E90020C0
:101C94009B1A40F2E9324FEAD13161EB00019342E1
:101CA40071F1000101D3FFF76BFFD4E9003213F5A2
:101CB4007A7342F10002C4E90032BDE87040FFF7D4
:101CC400B7BF63685B7923B12368294620461B6844
:101CD40098471034C5E770BD925800205049002041
:101CE40028A6020038A602004C49002090070020D4
:101CF40070B50D4D297861B90120FFF7B5FE0B4C85
:101D04000B4EB44206D3FFF799FF0028FBD1012301
:101D14002B7070BD63685B791BB1236820469B6898
:101D240098471034EDE700BF9358002028A602001E
:101D340038A6020000212DE9F0470846FFF794FE7B
:101D4400044648B340F267684FF000091BF0BAFA42
:101D54001A4B186030B11A4B1B68092B02DD194865
:101D64001AF06EFF0025184FDFF858A044B1204642
:101D7400FFF714FE044618B94FF0FF384FF0FF394F
:101D8400FFF75CFF064628B9B5B942464B465046B4
:101D94001AF076FF3546E9E74FF0FF384FF0FF3988
:101DA400D4E72B689B691BB100222846114698474B
:101DB4001035BD42F5D3E8E7044DFAE74849002061
:101DC40050490020FC02002038A6020028A6020088
:101DD40013B518481CF0EEFD174B1B787BB14FF080
:101DE4002003EFF3118483F31288BFF36F8FFFF79F
:101DF40025FF84F31188BFF36F8F02B010BD0F4B22
:101E04001B68002BF9D050B9002200230C48CDE9FF
:101E140000234FF4004200231BF086FCEDE70A2860
:101E2400EBD1074828F0BFF9064802B0BDE81040DE
:101E34001AF006BF5049002093580020484900205A
:101E440098070020FC02002010B5064B04461B68CE
:101E540098472146A06004481CF0D6FCBDE8104019
:101E6400FFF7B6BF0400002070020020044A054BAF
:101E74009B1AB1EBD30F34BF52F8310000207047E6
:101E840080A5020028A60200084B10B4C31A4468B7
:101E94001B110133237143689A710122436819604D
:101EA40043685A7110BCFFF73DBE00BF28A602006C
:101EB4002DE9F04F8FB0C1F34A2804AF0D46914687
:101EC400B8607B600C0DB8F1000F63D000264FF0B2
:101ED400040B4FF00A0A07F11403C7F80C80C7E992
:101EE40007667E620193CDF808B0CDF800A007F133
:101EF4001C0332464846F968FEF734FDB0F5006F1E
:101F040003461CD36C468AB0D9F8041004AB2648A7
:101F14001A46C3E9050140F2FF71D9614FF400711B
:101F24001984224B42F8103F4FF412513346204893
:101F3400FFF7BEFFA5462C37BD46BDE8F08FC0F3C2
:101F44000A0804F11700184420F0070080083B60D9
:101F5400FFF758FE68F35325044690B13B6800F13F
:101F64001001C7E9083607F11403F961CDE900A3AC
:101F7400CDF808B048460F4AF96807F11C03FEF78C
:101F8400F1FC68F353252A4620467B68B9681CF0A7
:101F940043FDD0E704F1170020F007008008FFF7A5
:101FA40031FE0446EDE700BFBBBA020004000001A5
:101FB400C0A50200F1E901002DE9F04F87B0044605
:101FC400DDE9105ADDE912690F4693469846A6B337
:101FD4001021334652460020CDF80090CDF81490DD
:101FE400FEF7ECFA014605F117000844144B04F01F
:101FF40007040BF0070BE40020F0070003EA412379
:1020040044EA8B1480081C430391FFF7FBFD44EA68
:102014000554054640B13EB1334652460399CDF8C6
:1020240000901030FEF7CAFA434622463946284645
:1020340007B0BDE8F04F1CF0EFBC3146D3E700BF5A
:1020440000FE0F000EB403B503AB53F8042B014696
:10205400044801931CF006FD02B05DF804EB03B0E4
:10206400704700BF91EA0100CA0605D48B064CBF35
:1020740002490349FFF7E6BF704700BFFBBA0200FD
:10208400FABA02002DE9F04F89B09B46DDE91576D6
:102094009DF8483004460493DDE913930593049BAB
:1020A4000D460692002B00F0878006F00803079384
:1020B4001CF09AFC06F0020A024600284BD0204687
:1020C4008549FFF7BFFF8046BAF1000F08D016F02C
:1020D400440F42D12A4620468049FFF7B3FF80448B
:1020E40006F001035BB17E4B049A204653F822208C
:1020F4007C4B7D49002A08BF1A46FFF7A3FF06F070
:102104000803002B55D0794B049A204653F822201B
:102114007749FFF797FF0546069B2BB11A462046E1
:102124007449FFF78FFF0544BBF1000F05D05A46F1
:1021340020467149FFF786FF05444544B9F1000F75
:1021440049D1002F4FD1F30700F1C080314620461A
:10215400FFF78AFFB4E08046B6E7684B18680028AA
:10216400BDD0674B4FF47A7E1B684FF46162B5FBB8
:10217400F3F5B5FBF0F300FB13550EFB05F5B3FBCC
:10218400F2FAB5FBF0FC3C2102FB1A3200FB1C55B1
:10219400B2FBF1F30EFB05F5B5FBF0F501FB1322E1
:1021A40020460092CDE901C552465649FFF74AFF41
:1021B40095E706F00805AFE7BBF1010F06D1B9F1C9
:1021C400000F64D1002F7BD000250CE0B9F1000F83
:1021D400F8D04D485CE04D484B4622464C491BF034
:1021E4006BFC002F68D0DFF82C91DFF82CA1102FA6
:1021F40031462046B8464FF0000B28BF4FF0100878
:10220400FFF732FF5D4545DC059B514620461A78B1
:10221400FFF718FF4FF0010B1BF0070F03D14946DE
:102224002046FFF70FFFD8453BD9059B5146204672
:1022340013F80B20FFF706FF0BF1010BBBF1100F96
:10224400EAD14FF0000B20463449FFF7FBFE5A4613
:10225400059B20469A5CA2F120015F2928BF2E220B
:102264002F49FFF7EFFE0BF1010BBBF1100F1DD04F
:102274001BF0070F03D149462046FFF7E3FED8457C
:102284005A46E5D849462046FFF7DCFEEBE71F48EF
:10229400049DA1E749462046FFF7D4FE0BF1010B4C
:1022A400B0E720461F49FFF7CDFEC5E7059BB7EB16
:1022B4000807434405939AD1049B002B7FF443AF52
:1022C400204609B0BDE8F04F1CF0D3BB2046054AB8
:1022D4000549FFF7B7FE39E702BB020006BB02005F
:1022E4009CA60200FDBA020070150300B0A602000D
:1022F4002BBB020031BB020035BB02005C4900204D
:10230400584900200FBB0200BFEA010091EA010016
:1023140069EA010042BB02003ABB020044BB02006E
:1023240046BB020040BB02002DE9F0410F884B6818
:1023340005460C4690468E6886B0C7F382175BB19B
:10234400134A9B1A43F3CF0100291FDB2078C0F303
:10235400C200FFF78BFD0346214651F8102B60881D
:10236400C2F34A22002A01EB020408BF0021C0F391
:102374000B10CDE90308CDE90114002231462846AB
:102384000097FFF77FFE06B0BDE8F0810023E3E786
:1023940080A5020042F20F7373B58B4228BF0B462F
:1023A40005680446052168460D4A1BF0FDFB0646F8
:1023B400636828460B225B680A491CF046FB636885
:1023C4003246694628465B681CF03FFB63681B2263
:1023D40028465B6804491CF038FB02B070BD00BF9E
:1023E4000DCF020065BB020049BB0200002101239E
:1023F400064A904206D8064A01B901231360054BE8
:1024040018607047012140085B00F2E740420F006A
:10241400584900205C490020014B00201960704796
:10242400744900200122024B02481A701CF021BB9F
:1024340095580020E0A602000148FFF7ABBF00BF9B
:10244400E0A6020010B5064B0C461868FFF754FBD3
:102454002146BDE8104003460F220248184700BF3A
:1024640074490020E0A60200F8B50D460446064F64
:102474004618B44201D12846F8BD14F8011BBB68C4
:1024840001485B689847F4E7C0A202002DE9F843CD
:1024940005464FF02003EFF3118683F31288BFF350
:1024A4006F8F4FF00C090D4B0D4F1C68DFF8348013
:1024B4002CB986F31188BFF36F8FBDE8F883D4E994
:1024C4000123002D18BF13462BB198F8102009FBE7
:1024D40002F2B85C98472468EAE700BF90490020FC
:1024E4008449002060560020012270B5164B1C7CE4
:1024F40004F01F039A40D043144B610903EB81039A
:10250400D3E8EF1F01EA0005C3E8E65F002EF7D128
:102514000A4213D00E4B0F4D8BB10C236343EA18C0
:102524005178E85C1CF02CFA0020FFF7AFFF0C2375
:102534005C4300232A192B51C2E9013370BD83F394
:102544001188BFF36F8FEFE7605600209849002091
:1025540085E90100844900202DE9F041324B07460A
:102564001D7C4FF02003EFF3118883F31288BFF32F
:102574006F8F0C246C432D4B2D4E195D1A190029B5
:1025840047D007CA06EB040C8CE8070000221A5552
:1025940088F31188BFF36F8F0C236B43F05CF21840
:1025A400A8B37B1C10D04FF400400021D2F808C01F
:1025B400204C0023ECFB00411F4A2046FDF7C8FDD8
:1025C4000121381A02F0E2FD1AF0A8FD0120FFF7FC
:1025D4005DFF1A4B6A0903EB8203012205F01F0118
:1025E4008A40D3E8EF0F1043C3E8E10F0029F8D184
:1025F400134B3BB10C2303FB05F033185978305CC3
:10260400FFF7FEF8FFF770FF1AF09CFD0120BDE80C
:10261400F0810146284600F015F80028B8D007C814
:10262400344484E80700B3E760560020784900206A
:10263400844900203F420F0040420F009849002087
:10264400051800002DE9F04F85B00E4603A900F0EF
:1026540043F84FF4004704464FF0000B1B4B039D17
:10266400D3F800A0431E1BB203EB4303DFF86080E2
:1026740005EB830524B9A146484605B0BDE8F08FB3
:10268400C446594668680023E0FB07C1114A604606
:10269400FDF75EFDC44659460190A8680023E0FB9F
:1026A40007C10C4A6046FDF753FDBAF1FF3FA94646
:1026B40001D0824505D9731CDED0019B1844B04279
:1026C400DAD9013CA4B20C3DD4E700BF08000020D5
:1026D4003F420F0040420F0008B9024B0B6000203C
:1026E400704700BFF0A6020001481BF0A3B800BF6A
:1026F400F0A6020038B5044618B90F4B0F485B68C2
:1027040098476168B1F5683F0FD0B1F5680F0CD0F8
:102714000B4DA94209D011F4686107D0214609483C
:1027240027F0E4FB00232360656038BD1422206891
:102734001CF046FAF8E700BFFC010020AEBB020023
:102744002C5F5CA99C4E002008B560B34368B3F5C8
:10275400683F0ED0B3F5680F18D0144A934220D0C6
:1027640000684FF0FF324FF0FF331AF0B3F958B15D
:1027740015E001220368D3E8EF1F002903D1C3E861
:10278400E02F0028F7D10AD1002008BD0368084AC9
:102794001B7803F5807352F82330002BF4D00548DE
:1027A400F3E70548F1E76FF4E040EEE72C5F5CA93E
:1027B40000000350E98FFFFFEA8FFFFF08B520B345
:1027C4004368B3F5683F09D0B3F5680F13D0114AD5
:1027D40093421DD000681AF0F7F914E00022036850
:1027E400D3E8EF1F012903D1C3E8E02F0028F7D174
:1027F40009D0094808BD00210368084A1B7803F57D
:10280400807342F823100020F4E76FF4E040F1E70E
:102814000348EFE72C5F5CA9E98FFFFF000003503A
:10282400EA8FFFFF10B5044618B91D4B1D485B68BD
:1028340098476368B3F5683F2FD0B3F5680F2CD081
:10284400194A934219D1236803BB4FF0FF324FF06A
:10285400FF33214615481AF03BF808B923681BB921
:102864000F4B13485B6898471422002120681CF022
:10287400A7F94FF46863636008E0B3F5683F0DD8C7
:102884003A2B03D040F6BA629342DED1206827F097
:1028940070FB636843F03A03636010BD054AF3E7D5
:1028A400FC010020AEBB02002C5F5CA99C4E002002
:1028B400D4BB02003A00003A08B50649402314226A
:1028C400054827F005FBBDE80840044904481BF00F
:1028D40023B800BF9C4900209C4E0020F8A60200AB
:1028E4000CA70200014910220A60704710ED00E0B5
:1028F40072B6404080F31188BFF36F8F01B5FEF7C5
:102904003BFF002802D0BFF34F8F30BFBDE801402A
:1029140062B6BFF36F8F704772B6494081F3118876
:1029240001B5FEF729FF002802D0BFF34F8F20BF67
:10293400BDE8014080F3118862B670472DE9F04785
:1029440081460C4600AF00294CD0D1E900126E46F6
:102954008AB0A3686D464FF0050AA8462548C5E924
:102964000723C5E9050148F810AF002342464FF498
:1029740021512148FFF79CFAD4E90312B546636953
:10298400AD461E48C5E90723C5E90501C5F810A0F1
:10299400002342464FF421511748FFF789FAB54600
:1029A40088B0E3696D464FF0030AA846144AC5E9A6
:1029B400052348F810AF002342464FF4C2510E4895
:1029C400FFF776FAB546A369AD460E4AC5F810A0DE
:1029D400C5E90523002342464FF4C2510648FFF7D8
:1029E40067FAB5462146484619F0F4FDBD46BDE8F0
:1029F400F08700BF01BC0200F0A5020030BC020059
:102A04005FBC02006EBC020040B2002807DB012359
:102A14004109034A00F01F00834042F82130704707
:102A240000E100E040B200280CDB01220649430922
:102A340000F01F008240203341F82320BFF34F8F62
:102A4400BFF36F8F704700BF00E100E0054B420900
:102A540053F82220012300F01F0003FA00F0104075
:102A6400704700BF00E100E040B2002801F101011D
:102A7400ACBF00F16040064B4FEA4111C9B2ABBF95
:102A840000F5614000F00F0080F8001319547047FE
:102A940014ED00E030BFFFF7FDBF00BF0B4A08B5DF
:102AA4000B4B22F07F029A60BFF34F8FBFF36F8FFF
:102AB400D3F8882022F47002C3F8882019F046FE67
:102AC4001AF066FC00F0BAFB19F080FE000000006A
:102AD40000ED00E0094A0A49936809685867996754
:102AE40008494B6843F080534B60002383F31188FB
:102AF400BFF36F8F9368986F704700BF60560020D4
:102B0400DCB5020000ED00E013498A684FF03000A4
:102B14001044EFF3098C80E8F01F202080F3128822
:102B2400BFF36F8F0D4F4FF000668A698A603E6075
:102B3400506F0023536780F3118802F1300090E84E
:102B4400F01F8CF3098802F1000004B51BF0D7FFD5
:102B5400BDE80440704700006056002004ED00E02A
:102B64001EF0040F0CBFEFF30880EFF309808169B6
:102B740011F8021C0229FFD001B51BF0B1FF01BD01
:102B840042F8203C009B0B4942F81C3C019B21F07D
:102B9400010142F8183C029B42F8081C42F8143C1C
:102BA4004FF0807342F8043C0023203A02654367E7
:102BB400704700BFC7DB0100084B9860436E83F386
:102BC4000B88104681F30988002163B681F31188CC
:102BD400BFF36F8F002200231AF0F3FF605600202A
:102BE40001B572B60B4A506900281EBF002151611D
:102BF40027F0B0F962B6EFF30580A0F110004FEAB8
:102C0400C0000549014409C99847BDE8014003498A
:102C1400084700006056002020A30200252C000075
:102C2400044B99689869884203D003494FF0805255
:102C34000A6070476056002004ED00E02DE9F04181
:102C440086B006460D4600AF0224444B4FF4825131
:102C54007B6143483C6107F110021BF054FF414B78
:102C64009B6ADB0678D5404B3D484FF48251C7E957
:102C7400044307F110021BF046FF1120394B9B6AF5
:102C84001C070BD5394B36487B6102234FF4825124
:102C94003B6107F110021BF036FF1220314CA36A8E
:102CA400990723D5E846324B07F110027B610223D2
:102CB4004FF482513B612A481BF025FF636BA26AE3
:102CC400120612D588B06A462A492548C2E9051376
:102CD40003234FF4C25142F8103F1BF014FFC546C2
:102CE4001EB1A36A23F08003A36213201D4B9B6AC9
:102CF400DE070BD5204B1A487B6102234FF4825127
:102D04003B6107F110021BF0FEFE1420154B9B6A79
:102D14009C060BD5194B12487B6102234FF4825158
:102D24003B6107F110021BF0EEFE15200D4B183726
:102D34009A6AD10658BF9A6A9A6A920642BF5A6A38
:102D440022F400525A629A6A42F0FF029A62002305
:102D54002B70BD46BDE8F08110208FE79CBC0200BB
:102D6400F0A5020000ED00E0B2BC0200E5BC0200E8
:102D7400F8BC020010BD020026BD020045BD0200E1
:102D84002DE9F04186B006460D4600AF0224474BBC
:102D94004FF482517B6146483C6107F110021BF0FD
:102DA400B2FE444B9B6AD9046DD5434B40484FF463
:102DB4008251C7E9044307F110021BF0A4FE172057
:102DC4003C4B9B6A1A050BD53C4B39487B6102236B
:102DD4004FF482513B6107F110021BF094FE18205E
:102DE400344CA36A9B0523D5E846354B30487B61B8
:102DF400022307F110023B614FF482511BF083FE62
:102E0400A36BA26A100412D588B06A462D492848DB
:102E1400C2E9051303234FF4C25142F8103F1BF0DB
:102E240072FEC5461EB1A36A23F40043A3621920AF
:102E3400204B9B6A59050BD5234B1D487B6102230C
:102E44004FF482513B6107F110021BF05CFE1A2023
:102E5400184B9A6AD20518D51C4B15487B6102237E
:102E64004FF482513B6107F110021BF04CFE1B2012
:102E7400104A1837936A43F47F43936200232B70FC
:102E8400BD46BDE8F08116209AE79B6A9B04EFD506
:102E94000F4B07487B6102234FF482513B6107F1DA
:102EA40010021BF030FE1C20E2E700BF74BD0200DC
:102EB400F0A5020000ED00E08ABD0200E5BC0200BE
:102EC4009BBD0200B4BD0200C9BD0200E4BD020006
:102ED40045BD020010B586B002243E4B4FF482512A
:102EE4003D4804AA059304941BF00DFE3B4B9B6ADA
:102EF40099016CD53A4B38484FF4825104AACDE974
:102F040004431BF000FE1E20344B9B6ADA010AD5F1
:102F1400344B3148059302234FF4825104AA04939D
:102F24001BF0F1FD1F202D4B9B6ADB020AD5022406
:102F34002D4B29484FF4825104AA059304941BF0A5
:102F4400E2FD2046254B9B6A1C030AD5274B2248E9
:102F5400059302234FF4825104AA04931BF0D3FD7A
:102F640021201E4B9B6A59030AD5214B1A4805930D
:102F740002234FF4825104AA04931BF0C4FD2220BF
:102F8400164B9B6A9A030AD51A4B134805930223DE
:102F94004FF4825104AA04931BF0B5FD23200F4B78
:102FA4009B6ADB030AD5144B0B48059302234FF4A9
:102FB400825104AA04931BF0A6FD2420074A936AB5
:102FC4006FEA03436FEA1343936206B010BD1D20FA
:102FD4009AE700BFFCBD0200F0A5020000ED00E08E
:102FE40014BE020027BE020041BE02006BBE0200F6
:102FF40089BE0200AEBE0200C8BE02002DE9F04345
:103004008BB0764B0546D3F80480002600AFC8F396
:10301400080486F31188BFF36F8F02F07F43B3F186
:103024007F4F0ED102F00C03082B19D16C4B4FF4D7
:103034008251FB6102236B48BB6107F118021BF04C
:1030440062FD002635460023FB71E31E092B00F2C6
:10305400A580DFE803F00A989B94A3A3A3A3A39EEF
:1030640010074CBF0D460126EDE7E9464FF0020874
:103074005D4B07F11802FB614FF482515948C7F8C0
:1030840018801BF040FD0023544CFB71E36A9A073F
:103094000BD5564BC7E906834FF48251514807F1CB
:1030A40018021BF030FD002440E0E36A002B01DA33
:1030B4004F4BEFE7E36A5B00F5D54E4B07F118027F
:1030C400C7E906834FF4825146481BF01CFD63692F
:1030D400AA6943F480736361BFF34F8FBFF36F8FAB
:1030E400636932F8022C23F480736361BFF34F8F5A
:1030F400BFF36F8F4DF602739A4207D0A36ADBB217
:1031040083B30120F91DFFF799FD3AE088B02B68DD
:103114006A4639493348C2E9051303234FF4C251BF
:1031240042F8103F1BF0EFFCCD462C68FB79ABB99D
:103134002022294607F108001BF037FD7B6A002E88
:1031440047D0C3F3080222B96FEA53236FEA43233B
:103154007B62204607F10801FFF7F0FB2C37BD46E0
:10316400BDE8F083A36A13F47F4F04D00120F91D56
:10317400FFF706FE05E0A36AB3F5803F93D3FFF79C
:10318400A9FE0446D2E70020F91DBCE70020F91D82
:10319400EEE71A4BFB610223BB617DE7184A18F482
:1031A400F87FE8468AB0174B18BF13466A4616499B
:1031B400103CC2E905134FF400731384134BD4611C
:1031C4004FF41151074842F8103F1BF09CFCC546D0
:1031D40069E723F4FF7323F00103B9E700ED00E08E
:1031E40021BF0200F0A502004CBF020063BF020031
:1031F40084BF020092BF0200B1BF0200CDBF020033
:1032040008BF0200F3BE0200F1BF02000400000187
:10321400044B5A6942F010025A615A6942F48062BE
:103224005A61704700ED00E0EFF30880EFF3098185
:1032340001B57246FFF7E2FE01BD00BF0023202165
:103244000348C2180133452B82F80013F9D17047A3
:1032540000E100E0002080F31488BFF36F8F0020AA
:1032640080F30A8880F30B88FEF796FB00200E4952
:103274000860BFF34F8F0D4880F3088800F03EF8D4
:10328400202080F311880A484FF40061401880F32D
:103294000988EFF314800221084380F31488BFF3F4
:1032A4006F8FFFF7FBFB000094ED00E0006E002041
:1032B400C05C0020BFF34F8F0549064BCA6802F477
:1032C400E0621343CB60BFF34F8F00BFFDE700BF45
:1032D40000ED00E00400FA05002318460649D1F881
:1032E4009020C2F30722934200DB7047C1F8983064
:1032F400C1F8A0000133F6E700ED00E010B572B6A6
:10330400002484F31388FFF7E7FF23464FF0FF30D0
:103314000C4A03F120010133102B42F82100F8D1AB
:1033240000234FF0FF30074A03F160010133102BF3
:1033340042F82100F8D162B6BFF34F8FBFF36F8F0D
:1033440010BD00BF00E100E0084B9B6883420BD135
:10335400EFF3058343B1064B5A6842F080525A603A
:103364005A6A22F400425A6219F0B2BF6056002031
:1033740000ED00E01FB5094C094A23460121094824
:1033840000F02AF900230393074B0121E41A01A852
:103394000193029400F02AF904B010BD0000072044
:1033A400000000201CA702001003002010B50C7AB6
:1033B4000B6804F01F0223F01F031A43CB6864094F
:1033C40023F01F03054943EA440343F00103C1F812
:1033D4009800C1F89C20C1F8A03010BD00ED00E0B9
:1033E40080B500AF88B06A46074BC2E905300323B5
:1033F40042F8103F00234FF4C2510448FEF758FD31
:103404006FF01500BD4680BD08C00200E8A50200AB
:103414002DE9F04F144606464FF0000987B05F4D82
:1034240000AF79607B68994535DAD6F80480B8F145
:10343400000F54D0B8F11F0F1BD918F01F0F18D16B
:10344400D6F800B01BF01F0F13D158461BF05EFBDB
:10345400824608EB0B0001381BF058FB82451FD055
:103464006FF0150A6C4688B06A464D49C2E9051AE0
:1034740005E06C4688B06A464A4BC2E90539032325
:1034840042F8103F00234FF4C2514748FEF710FDA5
:10349400A5466FF0150420461C37BD46BDE8F08FE5
:1034A4001AF1160FDED05445DCDDC5F898A0D5F826
:1034B4009C00C5F898A0D5F8A02020F01F0042F089
:1034C4001F08D6E900211144904201F1FF3B1ED1AF
:1034D400D84508D131465FFA8AF01BF020FB09F188
:1034E40001090C369EE7C5F898A0D5F89C3021F068
:1034F4001F0103F01F030B433146C5F89C30E0B2B3
:103504001BF00DFB10F1160FC3D0441CE7E7013A82
:10351400D845E0B222F01F02C5F898A008D1D5F82A
:10352400A030314603F01F031343C5F8A030E7E78A
:10353400D5F8A01001F01F010A43C5F8A0203146B8
:103544001BF0EDFA10F1160FA3D0C5F898A0D5F82A
:103554009C203B7C08F1FF3862F304033B74D5F8EC
:10356400A0303A7C5B0863F347123A74D6E9003220
:103574001344BB6023F01F03441C4344A3EB0B031D
:10358400E0B223F01F0307287B6102D9FFF728FF6D
:10359400B8E707F10801FFF709FFB6E700ED00E01F
:1035A40051C002002EC00200E8A502000522044B0F
:1035B400C3F89420BFF34F8FBFF36F8F704700BFE2
:1035C40000ED00E0BFF35F8F0022024BC3F89420AC
:1035D400704700BF00ED00E010B5034C2278FFF700
:1035E40017FF207010BD00BF965800202DE9F74F3B
:1035F400294D8A4606464FF00008AB46274FD04572
:103604001BDAD6F80490B9F1000F3FD031680846B0
:1036140001911BF07BFA0199044609EB0100013882
:103624001BF074FA84424FF014021D4B08D002FBC5
:1036340008F36FF015024BF8032003B0BDE8F08FD8
:1036440014F1160F2C60F8D01978A142F5DD02FBB5
:1036540008B0C7F89840C7F89840D7F89C4000F1E4
:103664000801007B64F304000871D7F8A0000C790A
:10367400400860F347140C71D7F89C1021F01F0127
:103684006960D7F8A01021F01F01296108F1010831
:1036940014350C36B3E700BFB84E002000ED00E04F
:1036A4009658002038B50E4D2C68082C15D80020EB
:1036B400FFF788FF0B4B0C4AC3F8C020844205D1A6
:1036C4000A4B00201C70FFF771FF38BD696801EBDD
:1036D4000011FFF76BFE0130F0E74FF0FF30F4E725
:1036E40028A7020000ED00E0AAFF4400965800203D
:1036F400014B1860704700BF2C0000200CB410B5BB
:1037040086B009B90DF10B000024CDE9040109AB21
:10371400089A009404A905480393FDF72DFC049B23
:103724001C7006B0BDE8104002B07047DDEB01002C
:103734000EB46FF0004110B5002487B009AB53F804
:10374400042B04900591009404A905480393FDF704
:1037540013FC049B1C7007B0BDE8104003B0704715
:10376400DDEB010010B586B009B90DF10F0000249E
:10377400CDE90401009404A90348FDF7FDFB049B73
:103784001C7006B010BD00BFDDEB0100084B70B526
:10379400C31A0D4607499B10044659434022064864
:1037A4001BF043FA2B4601462046BDE870401847FB
:1037B400E04E0020B76DDBB678A20200402373B55B
:1037C4000B4C0093041B0B460D460A49A41061439D
:1037D4000646094A09481BF054FA011E05DA304628
:1037E4002B4602B0BDE87040184702B070BD00BF60
:1037F400E04E0020B76DDBB6F1EC010078A20200C8
:103804002DE9F8430022012106460520FFF72CF993
:10381400114801F051FE114B984219D11BF055FD8E
:1038240000244FF01C090C27DFF834803569414629
:1038340009FB04501AF067FD002807DB012307FB8E
:1038440004551C44042CAB67F0D10020BDE8F88378
:103854006FF00400FAE700BF9D3800000000AD0BD4
:1038640050A7020001460C2300224B4370B50848C0
:10387400C41878331844D4E91C5622671BF0C2F9E3
:103884002DB132462B46BDE870400248184770BD42
:10389400E04E002078A20200052811D8DFE800F0ED
:1038A400030E10100C0A074B986F10F0070007D195
:1038B400FFF7D8BF0220FBE70320F9E70120F7E771
:1038C400704700BFE04E002008B54FF02003EFF32F
:1038D400118183F31288BFF36F8F124A136843F088
:1038E40002001060DA0708D481F31188BFF36F8FE8
:1038F400BDE8084001201BF0FABC4FF05023D3F878
:103904000C24D3F80C34D307EED507481BF07AF90E
:1039140081F31188BFF36F8FBDE808400020FFF7E3
:10392400A1BF00BF804F0020584F00201FB50022C8
:103934000123CDE902236B46084ACDF800D0CDF827
:1039440004D01BF0CCF9002805DB4FF4804200239F
:10395400684619F095F905B05DF804FB27ED010000
:1039640010B54FF02003EFF3118483F31288BFF3F3
:103974006F8F074A136823F00201DB07116002D43A
:1039840001201BF013FD84F31188BFF36F8F10BD6A
:10399400804F00202DE9F041012207463749D1E844
:1039A400EF3FC1E8E02F0028F9D133B93449354855
:1039B4004B60CB608A601AF0B9FC7B1E012B2BD8BC
:1039C400012F07D14FF05023D3F81C3403F0030325
:1039D400022B21D026F0B3FA0546F8B92A4B1B78FE
:1039E400E3B14FF0502302220646C3F808234FF0F8
:1039F4005024DFF89880D4F81834D4F81824D2036B
:103A040016D503F00303022B01D0012F10D175B397
:103A140086F31188BFF36F8FBDE8F0814FF0200368
:103A2400EFF3118683F31288BFF36F8F0125DEE76E
:103A3400C5B13046FEF770FFD4F81835DBB2012B60
:103A4400D9D1D4F80421002AD5D00022C4F8042105
:103A5400D4F804210222C4F818252022C8F88021B1
:103A6400A360C8E70021212019F012FCE4E74FF01D
:103A740050230222C3F80423CEE700BFDC4E00200B
:103A8400CC4E0020FC4E0020B959002000E100E09B
:103A940008B5074826F0F7F938B10648FFF728FEBD
:103AA4000448FDF73FF9002008BD6FF01200FBE762
:103AB400C0A20200BD3A00000A2838B50446074DEA
:103AC40004D1AB680D2128465B689847AB6803486E
:103AD4005B68E1B29847204638BD00BFC0A202002F
:103AE40010B50C461022002120461BF069F804236F
:103AF400034A2373C4E900230122A26010BD00BF5E
:103B0400800040007FB5074B4FF482510593022398
:103B1400054804AA04931BF024F96FF0850007B04C
:103B24005DF804FBBDC0020010A602007FB5074B80
:103B34004FF4825105930223054804AA04931BF011
:103B440010F9002007B05DF804FB00BFBDC00200FF
:103B540010A602007FB5074B4FF482510593022350
:103B6400054804AA04931BF0FCF86FF0850007B025
:103B74005DF804FBBDC0020010A602007FB5074B30
:103B84004FF4825105930223054804AA04931BF0C1
:103B9400E8F86FF0850007B05DF804FBBDC00200D3
:103BA40010A60200F0B50546B3F808C0988889B09D
:103BB40084450E9E0DD2254B0793022324484FF4CF
:103BC400825106AA06931BF0CCF84FF0FF3009B0DF
:103BD400F0BDDF881B6807FB00F4E4109C4228BF9B
:103BE4001C4606B10CB91B4BE6E7844501D91A4BB8
:103BF400E2E7530701D0194BDEE72023ADF800308C
:103C040021238DF8023022238DF80530D3088DF856
:103C14000630D319C9B20138DB108DF80310013B0B
:103C240001448DF804108DF80730082201236946F9
:103C340068681BF0B3F8034608B1094BBCE7224699
:103C4400314668681BF0AAF8C1E700BFC9C002008A
:103C540010A60200E5C0020005C1020016C1020060
:103C640029C10200B0B588B04568044600AF05F12B
:103C740010001BF05CF8002819DA2B686C4688B039
:103C84001B686A464F495048C2E905134FF4007354
:103C940093834E4B4FF4E25142F8103F1BF061F80E
:103CA4006FF01505A54628462037BD46B0BD2868E7
:103CB40026F0E9F80028E0D0EB6823B1186826F074
:103CC400E2F80028D9D0AB69BBB94AF2A4636568AD
:103CD400BB80AB69C3B920461BF080F830B33C4BC2
:103CE4004FF48251FB6102233748BB6107F118028C
:103CF4001BF037F86FF00405D5E705F118001BF049
:103D040016F8051EE1DACEE700211835212019F056
:103D1400BFFA012128461BF02DF80021212019F0BB
:103D2400B7FA002128461BF025F8D4E7294B0622D0
:103D340018689B88B860BB816068012307F108019B
:103D44001BF02CF80028CAD1234B07F1080118688E
:103D54009A889B79B860BA81BB7307220123606893
:103D64001BF01CF80028BAD14CF6A10302223B81B7
:103D74006068012307F108011BF010F80028AED198
:103D8400164B60681A889B783A81BB720322012320
:103D940007F108011BF002F80028A0D10123022238
:103DA4006068391D1AF0FAFF002898D18021204656
:103DB4001BF02EF80546002891D120461BF01BF875
:103DC40071E700BF41C1020010A602000300000118
:103DD4005AC1020077C1020048A602007EC1020057
:103DE40030B5406801F01F04057BB2F5001F85B0B3
:103DF40044EA451405D1204601F01CFE002005B01C
:103E040030BD0025B2F5800FCDE9025514D1B3F1D0
:103E1400007F0CBF042305238DF8083000232046BF
:103E2400194602AA01F044FC1F4B984238D10121E3
:103E3400204601F0B9FDE1E7B3F1C06F25D0B3F13D
:103E4400007F14BF012302238DF808308368CB4020
:103E5400D907E3D4B2F1A07FE0D1144A1448610930
:103E6400012908BF024604F01F03803352F82330AF
:103E7400DB07D3D40DF107052946204601F040FDA8
:103E84000C4B984203D00395C8E70323DCE728468C
:103E940001F084FD044B9842F5D06FF00B00AEE7BF
:103EA4006FF01500ABE700BF0000AD0B0025845098
:103EB400002884500400AD0B10B501F05FFD0446EA
:103EC40068B901F033FD084B98420AD121460748EE
:103ED40001F010FD224605210D20FEF7C5FD00204E
:103EE40010BD6FF00400FBE70000AD0BF53E0000D1
:103EF4004209034670B502D0012A17D070BD0D4E99
:103F0400326951680029F9D0012503F01F030C68B8
:103F14009D400029F2D08A682A4002D030464B687E
:103F240098472CB1236821461C46F2E7024EE7E786
:103F34002346F8E7A8A2020090A202002DE9FF415F
:103F4400476801F01F053B7B144645EA43150E46BE
:103F540028460DF1030101F0D3FC14F4403F8046E0
:103F64000BD1284601F08EFD3C4B984503D19DF8BA
:103F7400030001F00DFD00200CE000232846194643
:103F840002AACDE9023301F093FB344B984204D0EA
:103F94006FF0150004B0BDE8F081804503D19DF8B1
:103FA400030001F0F5FCA30349D540F20633234096
:103FB400B3F5837F19D00CD8062B17D004D8ABB136
:103FC400022BE5D1042311E0B3F5807FE0D1012376
:103FD4000CE040F20222934226D0B3F5407F25D074
:103FE400B3F5007FD4D1022300E007238DF8043019
:103FF40084F48033C3F30043E0068DF805304CBFEE
:104004000323C4F3401321038DF8063010D5012394
:104014007A68B34093600022284601A901F0F6FBB8
:104024000E4B9842A7D0B3E70523DFE70323DDE770
:10403400620341BF01237A68B340D360EBE7E30630
:104044004FF000034CBF0324C4F340141A4628461F
:1040540001A98DF8044001F02BFBE1E70000AD0B52
:1040640010B504460269A8B0C2F8800025490020B2
:1040740001F008FE002201212A20FEF7F5FC646805
:104084008422002107A81AF09BFD6368B3F5803FE2
:104094000AD31D4B05930223049300234FF4845148
:1040A4001A4804AAFDF704FF2368B3F5803F0AD336
:1040B400174B05930223049300234FF484511348B0
:1040C40004AAFDF7F5FE00230120279307AA6168DF
:1040D4000432D940C90744BF00FA03F142F8041C72
:1040E4002168D940C90748BF00FA03F103F101036D
:1040F40048BFD163102BEAD107A801F0DBFD0020F3
:1041040028B010BD0D420000ACC10200E0A50200C1
:10411400D8C1020030B50F290C46056987B042D8D2
:1041240043681B68CB40DB073DD5D5F88430CB40D2
:1041340003F001031AB913BB6FF0770031E0002BD1
:10414400FAD155F821304BB9184A0592022204924B
:104154004FF48451164804AAFDF7AAFED5F884301A
:1041640013B92A20FEF750FC0122D5F88430A2406E
:104174001343C5F88430E0B201F0BCFD0AE0C8B2D4
:1041840001F0C0FD0122D5F88430A24023EA0203E5
:10419400C5F88430D5F8843013B92A20FEF742FCE0
:1041A400002007B030BD6FF01500FAE704C202002A
:1041B400E0A5020030B505460C4687B052B1104B5D
:1041C40005930223049300234FF484510D4804AA59
:1041D400FDF76EFE0F2C0FD86B685B68E340DB07BE
:1041E4000AD501230020A400E4B204F1A04404F59C
:1041F4002834236007B030BD6FF01500FAE700BF24
:1042040034C20200E0A5020070B5D1F880600F2826
:1042140004460D46736886B003D81B68C340DB07A9
:104224000AD4154B05930223049300234FF48451BD
:10423400124804AAFDF73CFED5F88430E34013F09D
:10424400010309D10E4A0592022204924FF48451CB
:104254000A4804AAFDF72CFE05EB840255F8245005
:1042640045B1002321463046AC46126C06B0BDE889
:104274007040604706B070BD4FC20200E0A5020066
:104284006BC202004FF0010C2DE9F0475B4E5C4F0E
:1042940000EB8101814202D10020BDE8F08704686F
:1042A40004F07F03C4F343257F2B4FEA144408BF73
:1042B4004FF0FF33222C00F29D80DFE804F012233C
:1042C40028422B3E429B9B9B9B45729B9B9B9B9BAB
:1042D4009B9B9B9B757D80839B9B9B868C8F9295E0
:1042E4009800C2F80C354FEA5318B8F1010F14BF07
:1042F400B646BE4603F01F040CFA04F4CEF8084098
:10430400012402E0C2F814350024A64623E0C2F8D2
:104314000835E8E70024C2F808354FEA5319B9F123
:10432400010F14BFB046B84603F01F0E0CFA0EFE80
:10433400C8F80CE04FF0010E0DE0C2F80C35012472
:10434400EBE7C2F81035DFE7C2F80835002DDBD102
:1043540000240625A64650F804AB03F01F090AF40E
:104364000058B8F1000F4FEA53131CBF01244FF05B
:10437400000E012B0CBFB846B04608EB8908D8F8EC
:104384000032CAF3C11A03F0E0492B0243EA8A035C
:1043940043EA0E0343EA440343EA0903C8F800323C
:1043A40078E7C2F80C35D1E7C2F860350468C4F385
:1043B4008034002CC3D096E7C2F86435F6E7C2F81F
:1043C4006835F3E7C2F86C35F0E7C2F82435012408
:1043D4004FF0000EBFE7C2F8283584E7C2F8303545
:1043E400F5E7C2F83435F2E7C2F83835EFE7C2F83A
:1043F4003C35ECE76FF085004FE700BF00258450A3
:1044040000288450F0B54B79012B29D0032B24D1FB
:1044140010278B79032B20D1CE790EB1012E1CD11C
:104424000A79012A1ED0022A20D0B2B914460B6898
:104434004568B3F5164FD5F800C06ED033D8B3F540
:10444400165F6DD01CD8B3F5966F6BD010D8B3F54A
:10445400967F6AD0B3F5167F6AD06FF085005BE073
:104464000027D6E74FF480740E22E0E70024FBE730
:10447400B3F5166F5FD0B3F5965FEED1384B3CE0E1
:10448400B3F5E14F5AD007D8B3F5615F58D0B3F50F
:10449400964FE2D1334B30E047F61225AB42DCD1E4
:1044A4004FF4000329E0B3F5613F4BD013D8B3F5C3
:1044B400963F4AD009D84DF6C025AB4247D0B3F554
:1044C400614FCAD14FF46B0317E0B3F5E13FC4D198
:1044D4004FF0EB7311E0B3F5612F3BD008D8224DB8
:1044E400AB423AD0B3F5E12FB7D14FF0E86304E023
:1044F4001E4DAB42B1D14FF080530569CCF8243541
:1045040043683A431B6834432243C3F86C252B1D8C
:1045140003C983E803000020F0BD4FF41D03ECE75A
:10452400134BEAE74FF49E23E7E74FF4A033E4E7A5
:104534004FF41C33E1E74FF41D23DEE70D4BDCE7BA
:104544000D4BDAE74FF06C73D7E70C4BD5E74FF41C
:104554006503D2E74FF07063CFE74FF08063CCE799
:1045640000B0130000A04E0090D0030040420F00A2
:104574000050270000C0750000F03A0000903A0196
:104584002DE9F043804687B0002201210820FEF780
:104594006BFA0820FEF738FA0021D8F80470D8F82E
:1045A40010603C686A46C4F80015C6F80080D7F865
:1045B4000C9048461AF09AFC051E25DB009BD9F89E
:1045C400002019791868FFF75DFE051E1CDB4046C4
:1045D400311DFFF717FF0546B0B97B68990724D54D
:1045E40006F1180000F0D0FF244B984210D0244B61
:1045F4000593022304932B466FF004054FF4825174
:10460400204804AAFDF754FC284607B0BDE8F0830F
:10461400337E43F00043C4F8A031C4F88C30012346
:10462400327E9340184AC2F804350823C4F8003592
:104634003B7A53B9C4F81031D4F810317369C4F813
:1046440034350123C4F8383523607B689A075CBF8E
:104654004FF48073C4F804337B68DB0644BF4FF423
:104664008003C4F804333369C4F844350023C4F820
:1046740048350123A360E360C6E700BF0000AD0B2B
:10468400A1C2020020A6020000700150F8B5044641
:104694000D46076925F053FCB0B92E4B1B789BB12E
:1046A400642660681AF058FC00BB01201AF048FD2B
:1046B400013EF6D10021212018F0EAFDF0E786F34F
:1046C4001188BFF36F8FF5E74FF02003EFF31186E6
:1046D40083F31288BFF36F8F606831461AF03CFC95
:1046E40090B986F31188BFF36F8FEDE74FF0200385
:1046F400EFF3118683F31288BFF36F8F606831463E
:104704001AF02AFC0028DAD03B691D706268386907
:104714001368C3F844050120C3F848050020C3F812
:104724002001D3F82051C3F858015268D3F8580136
:10473400D20608D5082062681268C2F800054FF452
:104744008002C3F8042301229A6081F31188BFF325
:104754006F8FF8BDB95900202DE9F04383B0446848
:1047640000AFE66A0569002130463A1D1AF0BEFB27
:10477400002832DB7B68326819791868FFF782FDFC
:1047840000282ADB0126636A9847AC68D5E902321F
:1047940003EBC2039C4204D328461AF077FC0020A2
:1047A4001BE0206825F06FFBD8B9236819682379CA
:1047B4006C468AB06A46D3614FF400731A48138476
:1047C4001A4BC2E905011A484FF4115142F8103F3F
:1047D4001AF023FC6FF01200A5460C37BD46BDE865
:1047E400F08320682179E388D0F810E0DA0754BF19
:1047F40043F4B01383F4D013DEF800C023F4801222
:1048040006FA01F8DB074CBF4CEA08032CEA08035C
:10481400D0F80890CEF80030D9F800309847002836
:10482400DBDB0834B2E700BFDAC202000400000197
:1048340008A60200F0B504690646A56C4768236D16
:1048440085B03DB96BBB1946306905B0BDE8F04091
:104854001AF03EBC616C03BB31BB3A8D636CAA4257
:1048640028BF2A460091A2651BB1A36C002B18BF78
:1048740013460193E36C02931BB1236D002B18BF05
:104884001346002269463846039301F013FC0E4B8D
:10489400984217D06FF00401D6E79D4228BF1D4609
:1048A400DAE71D46616CD8E701F06043B3F1005FBD
:1048B400D3D0082D28BF0825206E2A461AF075F992
:1048C400216ECAE705B0F0BD0000AD0B10B503784A
:1048D4000C4686B0002B5ED18A6D42B94B6D6FF0E9
:1048E4007301186906B0BDE810401AF0F1BB8B6C77
:1048F4005BB19A421ED9294B4FF48251059302238E
:10490400274804AA04931AF088FB236DA26D5BB1B7
:104914009A4227D9214B4FF4825105930223204810
:1049240004AA04931AF079FB606D06B0BDE8104048
:10493400FFF780BF9B1A8B6473B94B6B01F148027C
:1049440008334B638B6B04F13400013B8B633831C8
:104954001AF050FB6064D8E74B6C002BD5D013449D
:104964004B64D2E79B1A23657BB9E36B04F15002D5
:104974000833E363236C04F14001013B236404F135
:104984003C001AF037FBE064CEE7E36C002BCBD09D
:104994001344E364C8E706B010BD00BFFEC20200C2
:1049A40008A602002DE9F04F8DB09A46436800AF87
:1049B4007B608B8806469B04884604693A6138D438
:1049C4004FF0FF324FF0FF3304F1100018F058F9A4
:1049D400C4F804807368D6F810909D687B6199F8D8
:1049E4005D30FB6023B1D9F80030984500F0EA80CF
:1049F400B8F804C01CF4006F22D0B44B6FF08505E6
:104A0400FB6202234FF48251B148BB6207F12802D2
:104A14001AF003FB23689B8813F4005304D16360EA
:104A240004F1100018F00CF928463437BD46BDE8EF
:104A3400F08FA369002BC3D163689942C0D1C9E741
:104A44001CF0010F15D06D4688B033686A46A14941
:104A54009F48C2E905134FF4007393839E4B4FF4B0
:104A6400E25142F8103F1AF0D8FAAD466FF015053E
:104A7400D0E71CF0080F0BD0984BFB6202234FF4D5
:104A840082519348BB6207F128021AF0C6FAEDE797
:104A9400CCF34513082B01D0914BEEE7D8F8003046
:104AA400BB60BA688F4B9A4201D88F4BE5E78F4BB6
:104AB4009D4207D94FF05022D2F8582512F0030F27
:104AC40018BF1D467B6907F1180E03F10C0BBBE8F8
:104AD4000F00AEE80F00BB689BE80300AB4228BFA1
:104AE4002B461D46824B8EE803009D424CD9814BD8
:104AF4009D424CD9804B9D424CD9804B9D424CD910
:104B04007F4B9D424CD97F4B9D424CD3774B9D426A
:104B14004CD37D4B9D422CBF4FF0A0554FF02065E8
:104B24001CF0020F3D620CF0040342D0002B14BFB2
:104B34000323022387F82430FB68CCF3001C87F896
:104B440025C02BB1786901F063FA002389F85D3040
:104B54004B466E4A786907F1180101F03BF96C4B3A
:104B640098422AD06D4688B06A466A4B4FF4C251C7
:104B7400C2E905300323564842F8103F1AF04DFAB3
:104B8400AD466FF0040545E74FF00075C8E74FF0F8
:104B94008065C5E74FF00065C2E74FF08055BFE779
:104BA4004FF00055BCE74FF08045B9E74FF00045A2
:104BB400B6E7003B18BF0123BCE70123C9F8008016
:104BC40089F85D30012384F85C303B69002B6DD19A
:104BD40063630023A36304F1480204F1380104F180
:104BE40034001AF007FA6064BAF1000F66D1C4F811
:104BF4003CA00023236404F1500204F1400104F1B9
:104C04003C001AF0F7F9002501212A46E0642563E7
:104C140020461AF019FA3046FFF70CFE2A462B46B6
:104C2400A06B83427AD100231946256CA9427CD11A
:104C3400934238BF1346A0464FF4FA5202FB03F5E1
:104C440058F8203B4FF4004C1B6840F2E730B5FBAA
:104C5400F3F50021C8354FF47A720023E5FB0C010B
:104C6400FBF776FA02460B46404618F009F800288E
:104C740062D0294B4FF48251FB6202231448BB6279
:104C840007F128021AF0C9F900257868A56501F032
:104C9400BFF984F85D506FF0730130691AF018FAA7
:104CA400404618F015F86FF07305B3E63B691B68CE
:104CB4006363002B8DD03B695B688BE7DAF80030C7
:104CC400E363002B95D0DAF8043093E71CC30200A9
:104CD40008A6020036C302000300000158C3020004
:104CE40077C3020047E80100A6C302000024F400D1
:104CF4008FD003001FA107003F420F007F841E00D6
:104D0400FF083D0000127A000048E801D148000085
:104D14000000AD0BD7C30200FEC30200616B01EBC0
:104D2400C301496801330A447BE7E06B00EBC1002F
:104D340040680131034479E7256B15F1740F7FF462
:104D440069AEA1E70123834070B5DC430B4AD2E886
:104D5400EF1F01EA0405C2E8E65F002EF7D14FF425
:104D6400803282400648C0F80823BFF35F8FBFF348
:104D74006F8F0B4214BF0120002070BD2C50002007
:104D84000050015070B40E4922F07F46D1E900343E
:104D9400D01AC31844F10004C1E90034A6F5001385
:104DA400B3F5400F09D2074B1B681A0A1B069C195E
:104DB400054B42F10005C3E9004570BC18F0BEBBC9
:104DC400F007002030500020F8070020D9B101235B
:104DD4000D4A8340D2E8EFCF4CEA030CC2E8E1CF9E
:104DE4000029F7D14FF48033084A8340C2F80433D2
:104DF400074BD3E8AF3FC340DB0742BF4FF4001279
:104E0400044BC3F8002170472C500020005001507F
:104E14002450002000E100E0C3B202489B00184483
:104E2400704700BF40510150024B00F5A87053F881
:104E340020007047005001500D4B1868010A00060D
:104E4400BFF35F8F0B4BD3F80435181841F1000101
:104E5400B3F5801F0AD2084BD3E90023904271EBCB
:104E6400030303D210F1807041F10001704700BFC9
:104E74003050002000500150F80700202DE9F74F72
:104E840016461F460446FFF75DFF0090FFF7D4FF68
:104E9400B04271EB070350D2384B301A67EB010173
:104EA400984271F1000165D2354B03EB0413D3E949
:104EB40002239F4208BF964249D04FF480393149BA
:104EC40009FA04F9204626F07F4BC1F848931AF0FA
:104ED40010F94FF0030A584604F15005AD00ADB285
:104EE40005F1502504F5A873274A05F5803501938B
:104EF400DDF804C020F07F4341F82C30C1F844931E
:104F0400D1F80485A0EB0800033820F07F409042DC
:104F14001DD9286860B1D1F80485A8EB0B0020F0F6
:104F24007F40B0F5000F12D920461AF0E2F8164A75
:104F34000AEB08000AF1010ADAE70123134AA34045
:104F4400D2E8EF0F1843C2E8E10F0029F8D1002599
:104F54000B490C98230101EB0412C850C2E9026703
:104F64000D9B536020460099FFF730FF284603B09D
:104F7400BDE8F08F6FF01505F4E700BF0100800075
:104F8400D007002000500150FDFF7F002450002076
:104F940073B54FF4803200254FF0FF304FF0FF31EE
:104FA4001C4C1D4B0226C4F80833C4F848331B4B71
:104FB400C4F80855C3E90201C4F80423C3E906018F
:104FC4004FF400334FF40012C4F80433144B01219E
:104FD400C4F804631520C3F880212A46FDF744FD74
:104FE4001520FDF711FD01230322A36023600D4B5F
:104FF40028461A600C4B0D4A1E600D4B0195009318
:105004000023FFF73BFF3046FEF7C4FC284602B0FE
:1050140070BD00BF0050015003000F00D0070020F6
:1050240000E100E02C50002028500020FFFF7F000A
:10503400894D00002DE9F04F394B85B0D3F8042396
:1050440092070BD5D3F8042142B10022C3F80421FE
:10505400344AD3F80431136801331360324D002409
:10506400A8464FF480362E4FD7F8043306FA04F9D5
:1050740019EA030F2ED00123A340DB432B49D1E8C7
:10508400EF2F02EA0300C1E8EC0FBCF1000FF6D1E8
:1050940022FA04F3DB0703D4254B53F82430CBB1B5
:1050A40020461AF026F8FFF7C7FE4FF02002EFF370
:1050B400118382F31288BFF36F8F08EB041CDCE9C1
:1050C40002AB504571EB0B0102930AD283F31188B2
:1050D400BFF36F8F103514B105B0BDE8F08F012414
:1050E400C2E70020D5E900134FF0FF3203934FF0DD
:1050F400FF3328600A48CCE90223C0F848932046CD
:1051040019F0F7FF029B83F31188BFF36F8F002917
:10511400E0D0039B524600935B468847DAE700BF22
:105124000050015030500020D007002024500020AF
:105134004051015070B501240C4B186890B1B0FA7D
:1051440080F0C0F11F0004FA00F1C943D3E8EF2F47
:1051540002EA0105C3E8E65F002EF7D1C240D20798
:10516400EBD570BD6FF00B00FBE700BF28500020AB
:105174000123054A8340D2E8EF0F1843C2E8E10F48
:105184000029F8D1704700BF28500020431C13B5F4
:1051940021D0012821DD124A124B9042D4BF04468B
:1051A4001C46FFF749FE104B0E49D3E90023801A31
:1051B400B0F5000F28BF002404448C4228BF0C46DD
:1051C40000200A49A2180190009143F10003FFF75F
:1051D40055FE02B010BD034CE3E70124E1E700BF34
:1051E400FEFF7F00FFFF7F00F0070020894D0000D5
:1051F40008B5FFF721FE024B1B68C01A08BD00BFAB
:10520400F0070020012310B5074C15206360FDF75B
:1052140009FC4FF40012054BC4F80833C4F84833B2
:10522400034BC3F8802110BD0050015003000F0050
:1052340000E100E07FB5FCF75BFD074B059302231B
:105244000493064800234FF4825104AAFCF730FE6D
:105254000020FEF72FF800BF3BC40200B8A50200EF
:105264004FF47F03D3F83021D3F83431072A05D122
:10527400023B032B02D8024AD05C704700207047DF
:1052840060C4020008B5FFF7EBFF58B1644BD3F8D4
:10529400202A3AB90D21C3F8201A0121C3F81C1998
:1052A400C3F81C290022D30003F57F03D3F80013AD
:1052B400013107D0D3F800130132D3F80433202A84
:1052C4000B60F0D1FFF7CCFF002840F0A080FFF77F
:1052D400C7FF40B1534B544AC3F830254FF0502315
:1052E4000122C3F858254FF47F03D3F83021D3F8B3
:1052F4003431072A09D1023B032B06D84B4AD35C2D
:105304001BB100224A4BC3F84C25FFF7A9FF50B14B
:105314004FF05023D3F80024D10742BF0022C3F832
:105324001421C3F818214FF47F03D3F83021D3F8A4
:105334003431072A09D14FF05023D3F80024D2077F
:1053440044BF6FF00102C3F80024FFF789FF18B1CE
:105354006522334BC3F80C274FF47F03D3F8302175
:10536400D3F83431072A16D1314BD3F82034002B2B
:1053740011DA4FF050230322C3F8182501229A6052
:10538400D3F80421002AFBD00022C3F8042101220F
:10539400DA60C3F818254FF47F03D3F83021D3F82B
:1053A4003431072A23D1023B032B02D8214AD35C90
:1053B400EBB17E221A4B1B49C3F80C27C3F83C29D6
:1053C4007F231D4AC2F818310023C1F8043EC1F8F6
:1053D400083E01F54821C1F81031C2F82431C2F861
:1053E4002C3102F5FF1202F58052C2F8A032134AA2
:1053F400D2F88C3043F44063C2F88C30104A114B1D
:105404001168C3F84415D269C3F84C2508BD292294
:10541400034BC3F80C270322C3F83C2757E700BF0C
:1054240000400050009003504400EFBE5CC40200F2
:105434000020035058C402000020005000ED00E09A
:105444000080FF000060005070B501250268B2FAC8
:1054540082F3C3F11F03DBB205FA03F422EA040466
:10546400D0E8EF6F964204D1C0E8EC4FBCF1000FD6
:10547400F6D1EBD101480B7070BD00BF0000AD0B3D
:1054840010B50368CB40DB0710D401238B400268BE
:1054940043EA0201D0E8EF4F944204D1C0E8EC1F84
:1054A400BCF1000FF6D1F2D1014810BD0148FCE770
:1054B4000000AD0B0400AD0B044B1A7922B9012294
:1054C40018601A710248704702487047345000202F
:1054D4000000AD0B0C00AD0B4FF0502310B5D3F80A
:1054E400002152B10020C3F80001D3F800210122A9
:1054F400C3F80823234B1B6898474FF05023D3F875
:1055040004218AB10022C3F80421D3F80421D3F87A
:105514001824D3F8181402F00302012A4FF00201F0
:1055240028D1C3F818159A604FF05023D3F82021DE
:1055340062B10022C3F82021D3F820214FF48072F5
:10554400C3F808230F4B04201B6898474FF05023DF
:10555400D3F82421AAB10022C3F82421D3F82421AA
:105564004FF40072C3F80823064B0520BDE8104031
:105574001B681847C3F80813024B01201B6898479F
:10558400D2E710BD3450002001460148FFF75CBF4C
:10559400F00000200123044A83400146C2F8083584
:1055A4000248FFF76DBF00BF00700150F0000020FB
:1055B400036803F01F020260034A04485B09012BDD
:1055C40018BF1046704700BF00258450002884503F
:1055D400034B083033F81000C0F34010704700BF8D
:1055E400F400002070B50D4C00F1080334F81330BA
:1055F4000546DA050E4607D5C3F3432304EBC3027D
:10560400526854F833309847A3682BB13146284682
:10561400E268BDE87040184770BD00BFF400002088
:1056240010B4124A083032F81030D9051BD5C3F330
:10563400432123F4F85322F81030002002F10E0421
:1056440034F8023F13F4807F03D0C3F34323994219
:1056540009D001303028F3D1002342F83130044816
:1056640010BCFFF70DBF10BC704700BFF400002052
:105674006801002038B50246FFF7AAFF0B4C02F17F
:10568400080560B1002134F815305B0B9B0003F171
:10569400A04303F55043C3F81015C3F81015104682
:1056A400FFF7BEFF002324F8153038BDF4000020B6
:1056B4002DE9FF41044690461D4601B34F4E00F1CB
:1056C400080736F817309B0702D5FFF781FF28BB80
:1056D40000232046CDE900338DF80E308DF80F30CD
:1056E4000DF10F020B460DF10E0119F061FE36F8B3
:1056F400173023F0020343F0010326F81730B8F102
:10570400000F2DD03D4E04F1080736F8171098F815
:1057140000008A07D8F8043002D5CBB1384821E01C
:1057240021F02001C904C90C26F8171083B10328FD
:10573400F4D8D8F8043093F800C06246920002F11D
:10574400A04202F5504280B9C2F81005C2F8100513
:1057540036F8173023F01C0343EA800326F8173089
:105764001DBB284804B0BDE8F081D2F8103541EAE9
:105774004C3123F00303C2F81035D2F8103541F050
:10578400200123F44F3323F44073C2F8103523026D
:10579400D2F810E503F47C5343EA004343EA0E03D2
:1057A400C2F8103526F81710D2E72046D5E900676D
:1057B400FFF736FF002ED4D0104DD5E900239642D2
:1057C40001D19F4218D010480DF10F01FFF73CFEA4
:1057D4000C4B9842C6D19DF80F2005EBC203083448
:1057E4005F6035F8143045F8326043EA422343F4ED
:1057F400807325F81430B4E70022EEE7F4000020AB
:105804000400AD0B0000AD0B68010020F0B50446A8
:10581400154685B019B3344E00F1080736F8172041
:10582400930703D4FFF7D4FE00285AD112F01C0FBB
:1058340002D04B78012B54D001238DF80F30002374
:105844004A1CCDE9001320468B1C0DF10F0119F001
:10585400AFFD36F8173043F0030326F8173015B9B7
:10586400224805B0F0BD204E04F1080736F81700B1
:10587400830736D595F800C00023614620F0200048
:10588400890001F1A041C00401F55041C00CC1F8E8
:10589400103526F81700C1F810356A78002ADFD0D1
:1058A400D1F81035AD7823F4991323F4F853C1F8E3
:1058B4001035D1F810E5230203F47C53120402F4EA
:1058C400403243EA0E0313432A0502F4801240EAED
:1058D4004C30134340F02000C1F8103526F817006F
:1058E400BEE70348BDE700BFF40000200000AD0B95
:1058F4000400AD0B014BC3E902017047F400002022
:1059040008B50246FFF764FE38B1054B083233F898
:10591400123004485B0B0B7008BD0348FCE700BF62
:10592400F40000200000AD0B0400AD0B38B50F4CA3
:1059340094F87850BDB96022294604F1100019F09A
:105944003FF90D20FDF760F8094B0A48C3F87C5174
:10595400D3F87C214FF00042C3F80423012384F8D8
:105964007830636738BD0448FCE700BFF4000020CA
:1059740000D000500000AD0B0500AD0B034B93F8B5
:105984007800003818BF0120704700BFF4000020E1
:1059940001460148FFF774BD640100200146014837
:1059A400FFF752BD6401002037B50446FFF710FE2F
:1059B4001E4B04F1080233F81230E8B113F002056B
:1059C4001AD15B0B9A0002F1A04000F5514002F19C
:1059D400A042056002F550420068D2F8100540F07C
:1059E4000100C2F8100529B1012202FA03F3104A9A
:1059F400C2F8043303B030BDC3F38203042B11D0C7
:105A0400052B11D001A80194FFF7D2FD019B016978
:105A1400D94001F001010231204603B0BDE8304015
:105A240019F00FBD0321F7E70221F5E7F400002088
:105A340000D0005008B50246FFF7CAFDC0B10F4BB5
:105A440002F1080133F81130990711D401225B0BDC
:105A54009A400B499B0003F1A043C1F8082303F5C6
:105A64005043D3F8102522F00302C3F8102508BDD3
:105A74000021BDE80840104619F0E3BCF400002002
:105A840000D0005013B5104B00F1080233F8123067
:105A94000446DB0716D5FFF7CDFF2046FFF7EAFDE6
:105AA40001A80194FFF784FD019B00EB8300D0F86B
:105AB400003203F0E04343F00203C0F8003203482D
:105AC40002B010BD0248FBE7F40000200000AD0B5B
:105AD4000400AD0B2DE9F04F002601223446634B40
